{
  "_format": "hh-sol-artifact-1",
  "contractName": "Vault",
  "sourceName": "contracts/Vault.sol",
  "abi": [
    {
      "inputs": [
        {
          "internalType": "uint256",
          "name": "_unlockTime",
          "type": "uint256"
        }
      ],
      "stateMutability": "nonpayable",
      "type": "constructor"
    },
    {
      "anonymous": false,
      "inputs": [
        {
          "indexed": false,
          "internalType": "uint256",
          "name": "amount",
          "type": "uint256"
        },
        {
          "indexed": false,
          "internalType": "uint256",
          "name": "when",
          "type": "uint256"
        }
      ],
      "name": "Deposit",
      "type": "event"
    },
    {
      "anonymous": false,
      "inputs": [
        {
          "indexed": false,
          "internalType": "uint256",
          "name": "amount",
          "type": "uint256"
        },
        {
          "indexed": false,
          "internalType": "uint256",
          "name": "when",
          "type": "uint256"
        }
      ],
      "name": "Withdrawal",
      "type": "event"
    },
    {
      "inputs": [],
      "name": "deposit",
      "outputs": [],
      "stateMutability": "payable",
      "type": "function"
    },
    {
      "inputs": [],
      "name": "owner",
      "outputs": [
        {
          "internalType": "address payable",
          "name": "",
          "type": "address"
        }
      ],
      "stateMutability": "view",
      "type": "function"
    },
    {
      "inputs": [],
      "name": "unlockTime",
      "outputs": [
        {
          "internalType": "uint256",
          "name": "",
          "type": "uint256"
        }
      ],
      "stateMutability": "view",
      "type": "function"
    },
    {
      "inputs": [],
      "name": "withdraw",
      "outputs": [],
      "stateMutability": "nonpayable",
      "type": "function"
    }
  ],
  "bytecode": "0x608060405234801561001057600080fd5b5060405161064f38038061064f833981810160405281019061003291906100fd565b804210610074576040517f08c379a000000000000000000000000000000000000000000000000000000000815260040161006b906101ad565b60405180910390fd5b8060008190555033600160006101000a81548173ffffffffffffffffffffffffffffffffffffffff021916908373ffffffffffffffffffffffffffffffffffffffff160217905550506101cd565b600080fd5b6000819050919050565b6100da816100c7565b81146100e557600080fd5b50565b6000815190506100f7816100d1565b92915050565b600060208284031215610113576101126100c2565b5b6000610121848285016100e8565b91505092915050565b600082825260208201905092915050565b7f556e6c6f636b2074696d652073686f756c6420626520696e207468652066757460008201527f7572650000000000000000000000000000000000000000000000000000000000602082015250565b600061019760238361012a565b91506101a28261013b565b604082019050919050565b600060208201905081810360008301526101c68161018a565b9050919050565b610473806101dc6000396000f3fe60806040526004361061003f5760003560e01c8063251c1aa3146100445780633ccfd60b1461006f5780638da5cb5b14610086578063d0e30db0146100b1575b600080fd5b34801561005057600080fd5b506100596100bb565b60405161006691906102b4565b60405180910390f35b34801561007b57600080fd5b506100846100c1565b005b34801561009257600080fd5b5061009b61023a565b6040516100a89190610310565b60405180910390f35b6100b9610260565b005b60005481565b600054421015610106576040517f08c379a00000000000000000000000000000000000000000000000000000000081526004016100fd90610388565b60405180910390fd5b600160009054906101000a900473ffffffffffffffffffffffffffffffffffffffff1673ffffffffffffffffffffffffffffffffffffffff163373ffffffffffffffffffffffffffffffffffffffff1614610196576040517f08c379a000000000000000000000000000000000000000000000000000000000815260040161018d906103f4565b60405180910390fd5b7fbf2ed60bd5b5965d685680c01195c9514e4382e28e3a5a2d2d5244bf59411b9347426040516101c7929190610414565b60405180910390a1600160009054906101000a900473ffffffffffffffffffffffffffffffffffffffff1673ffffffffffffffffffffffffffffffffffffffff166108fc479081150290604051600060405180830381858888f19350505050158015610237573d6000803e3d6000fd5b50565b600160009054906101000a900473ffffffffffffffffffffffffffffffffffffffff1681565b7fa3af609bf46297028ce551832669030f9effef2b02606d02cbbcc40fe6b47c553442604051610291929190610414565b60405180910390a1565b6000819050919050565b6102ae8161029b565b82525050565b60006020820190506102c960008301846102a5565b92915050565b600073ffffffffffffffffffffffffffffffffffffffff82169050919050565b60006102fa826102cf565b9050919050565b61030a816102ef565b82525050565b60006020820190506103256000830184610301565b92915050565b600082825260208201905092915050565b7f596f752063616e27742077697468647261772079657400000000000000000000600082015250565b600061037260168361032b565b915061037d8261033c565b602082019050919050565b600060208201905081810360008301526103a181610365565b9050919050565b7f796f75206172656e277420746865206f776e6572000000000000000000000000600082015250565b60006103de60148361032b565b91506103e9826103a8565b602082019050919050565b6000602082019050818103600083015261040d816103d1565b9050919050565b600060408201905061042960008301856102a5565b61043660208301846102a5565b939250505056fea2646970667358221220f076f9de61853d0b7fde24687808d9bf9fa99e1ff9f1ef3510339dc77a6fd2bf64736f6c63430008090033",
  "linkReferences": {},
  "deployedLinkReferences": {}
}